:040000000200B33215
:01000B0032C2
:0100130032BA
:01001B0032B2
:0100230032AA
:03002B00023D543F
:01003300329A
:01003B003292
:01004300328A
:03004B00022BC6BF
:01005300327A
:01005B003272
:01006300326A
:03006B000206D3B7
:01007300325A
:03007B0002075326
:03011B0002007E61
:05007E0012029780FE54
:0A011E00C01A85811AC082C083E573
:09012800812404F5817C007D00B6
:0E013100C3EC9490ED64809481400302021BA5
:0E013F00C374C89CE464808DF063F08095F07A
:0D014D00500B7490C39CFA74019DFB80045C
:04015A008C028D0383
:0C015E00A81A0886078F82C007C005C0E1
:0E016A0004C003C00212092BD002D003D0043F
:0C017800D005D007E51A2403F8E4F608CF
:01018400F684
:0C018500E51A2403F8C3E69A08E664803B
:0C0191008BF063F08095F0501FE51A24FD
:0C019D0003F8E51A2405F9E6F70809E666
:0C01A900F7E51A2403F8740126F6E408B8
:0401B50036F680CCCE
:0E01B9008F82C005C004C003C002120942D0EC
:0C01C70002D003D004D005E51A2403F890
:0C01D300E4F608F674C8C39AFEE49BFF33
:0C01DF00E51A2403F8C3E69E08E66480DD
:0C01EB008FF063F08095F0501FE51A249F
:0C01F70003F8E51A2405F9E6F70809E60C
:0C020300F7E51A2403F8740126F6E4085D
:04020F0036F680CC73
:050213000CBC00010D10
:03021800020131AF
:06021B00851A81D01A22B1
:0E02210090EB04E0FEA3E0FF4E7033C2AF7519
:08022F009F037FF87EFF7C01B4
:0A023700EC20E71DEC2404FAE43487
:0C024100E3FB8F828E83E493FDA3AF8269
:0B024D00AE838A828B83EDF01C80DF03
:07025800759F01D2AF800E7B
:0E025F008F0590E305EDF07F0090E304EEF0D4
:0E026D0090E304E0FE7F0090E305E07C002FAC
:0E027B00FFEC3EFEE4C0E0C0E0C0E0C007C003
:0E02890006904C55122665E58124FBF5812276
:07029700125EF4121348127D
:09029E0008CE1208F990000112CB
:0602A700011E121D1712DA
:0602AD003A9290154E127A
:0602B300154212175690DF
:0902B900B27575F080122C17904B
:0E02C200B28275F080122C1790DF61E0C42329
:0E02D000541FFF4307208F82122C4290B298D9
:0D02DE0075F080122C171208A99000001274
:0E02EB004D1CE4C0E0C0E0C0E090EB1B75F0DD
:0E02F9000012179815811581158112506E1292
:0D0307002C8E120221E4C0E0C0E0C0E090A6
:0E031400EB3375F000121798158115811581D5
:070322001207D31208E212DA
:090329002CFB90000412011E904F
:09033200B2A075F080122E6012D9
:02033B0008AD0B
:07033D001208B13000371275
:0E03440011A6E5828583F045F060291211DED6
:0E035200AE82AF83C007C006123CE4AC82ADA1
:0E03600083D006D007EEC39CFEEF9DFF1EBEAD
:03036E00FF011F6D
:07037100EF30E703120F3E1D
:02037800C200C1
:08037A00121F7385820A8583BE
:090382000BC3E4950AE4648085D4
:0C038B000BF063F08095F040A990B2E602
:0E039700E493FEA3E493FFC007C0068E828F9E
:0903A50083120083858208858320
:0803AE0009D006D007E508455F
:0603B60009700302043B84
:0E03BC0012310490B2E0E493FEA3E493FFC07C
:0E03CA0007C0061234FAAB82AC83ADF0D00649
:0E03D800D007C007C0067480C0E0E4C0E07427
:0A03E600F8C0E07403C0E0C006C0D8
:0803F000078B828C838DF02243
:0A03F80085820885830915811581AF
:0C040200D006D007C3E49508E4648085B0
:0A040E0009F063F08095F05024AE71
:0804180008AF098E828F8312E8
:0E04200034EE90B32BE493FEA3E493FFC007E9
:0D042E00C0068E828F83120083D006D00797
:0A043B0053BEFC4387010002033D9D
:0DB27500436F6E74696B6920322E360A003B
:0EB282004E373430204E616E6F53656E736F21
:08B29000722028434332340010
:08B298002D46313238290A006D
:02B378000000D3
:0A044500C01A85811AAD82AE83AFA4
:0E044F00F0125E53FBA3125E53FCBB0024BCF4
:0C045D000021C007C006C00574A6C0E066
:0C04690074B2C0E07480C0E0124CCC15EE
:0B0475008115811581D005D006D0074D
:0D0480008D828E838FF0E4122FDFA3E41233
:08048D002FDF758203D01A2253
:06B2A00006EB00000000B7
:0EB2A60048656C6C6F20576F726C64210A0053
:09B37A0000000045040000000081
:08049500AFF45307FE8FF422BF
:08049D00AFF45307FE8FF422B7
:0404A50043F40122F9
:0304A900D29022CC
:0304AC00C29022D9
:0704AF00A290E433F5822264
:0404B60043FE0122DE
:0804BA00AFFE5307FE8FFE2286
:0704C200438D01439A102253
:0E04C900AF8D5307FE8F8DE58D7007AF9A53F0
:0404D70007EF8F9A02
:0104DB0022FE
:0C04DC007401558DFF7E008F828E8322FC
:0404E800438C02221D
:0804EC00AF8C5307FD8F8C2239
:0C04F4007401558AFF7E008F828E8322E7
:06050000C2EB758A002227
:08050600AFF35307EF8FF3225E
:08050E00AFF35307EF8FF32256
:0405160043F3102279
:03051A00D2842266
:03051D00C2842273
:07052000A284E433F58222FE
:0405270043FD10225E
:08052B00AFFD5307EF8FFD2225
:0E053300438C1090E000E04410F043B820220A
:0E05410090E000E054EFF0E0FF54F060012283
:08054F00AF8C5307EF8F8C22E3
:0E05570090E000E0FF5307107E008F828E833D
:010565002273
:04056600438C01229F
:08056A00AF8C5307FE8F8C22B9
:0C05720074105589FF7E008F828E83225A
:06057E00C2C575890022D0
:0E0584001204AFE582701A90000C75F0401260
:0B0592002DB6AE82AF83EE4FB4010027
:08059D00E433FE7003FF80024D
:0205A5007F01D4
:0905A700EF3395E08F82F5832209
:0C05B000AE82AF83BE8105BF0002800652
:0605BC00BE8206BF000331
:0305C2000204DC54
:0405C5009000002280
:0A05C900C01A85811AAE82AF83BE0E
:0705D3008005BF0002800853
:0805DA00BE814ABF0047800EFC
:0705E2001204E81204951257
:0705E90004BA900001803A02
:0B05F000E51A24FCF8E608466025121E
:0E05FB0004DCE5828583F045F0701CC0E0C092
:0E060900E090000C75F040122D041581158153
:080617001205001204C2800369
:03061F001204C9F9
:050622009000018003BF
:0306270090000040
:03062A00D01A22C1
:0E062D00120520E582701A90001075F0401240
:0B063B002DB6AE82AF83EE4FB401007D
:08064600E433FE7003FF8002A3
:02064E007F012A
:09065000EF3395E08F82F583225F
:0C065900AE82AF83BE8105BF00028006A8
:06066500BE8206BF000387
:03066B000205572E
:04066E0090000022D6
:0A067200C01A85811AAE82AF83BE64
:07067C008005BF00028008A9
:08068300BE8147BF0044800B5B
:0B068B0012050612052B900001803ABA
:0B069600E51A24FCF8E6084660251277
:0E06A1000557E5828583F045F0701CC0E0C06F
:0E06AF00E090001075F040122D0415811581A9
:0806BD0012057E1205338003D3
:0306C500120541DA
:0506C800900001800319
:0306CD009000009A
:0306D000D01A221B
:0C06D300C021C0E0C0F0C082C083C0079E
:0E06DF00C006C005C004C003C002C001C000B8
:0E06ED00C0D075D000C2AF120572E5828583C1
:0E06FB00F045F0602F90001075F040122DB603
:0E070900E5828583F045F0601D7420C0E0E4B9
:0E071700C0E090001075F040122D0415811501
:0A0725008190B2BD75F0801221D75B
:0E072F00758900C2C5D2AFD0D0D000D001D0A5
:0E073D0002D003D004D005D006D007D083D060
:08074B0082D0F0D0E0D0213291
:0C075300C021C0E0C0F0C082C083C0071D
:0E075F00C006C005C004C003C002C001C00037
:0E076D00C0D075D000C2AF1204F4E5828583BF
:0E077B00F045F0602F90000C75F040122DB686
:0E078900E5828583F045F0601D7420C0E0E439
:0E079700C0E090000C75F040122D0415811585
:0A07A5008190B2B475F0801221D7E4
:0E07AF00758A00C2EBD2AFD0D0D000D001D0FE
:0E07BD0002D003D004D005D006D007D083D0E0
:0807CB0082D0F0D0E0D0213211
:03B2B400C6B2809F
:02B2B70084050C
:02B2B900C905C5
:02B2BB00B005DC
:03B2BD00CFB2808D
:02B2C0002D0659
:02B2C200720612
:02B2C400590629
:09B2C600427574746F6E203100B2
:09B2CF00427574746F6E203200A8
:0907D30012218BAD82AE83AFF060
:0E07DC00ED4E605E74052DFAE43EFB8F048A3C
:0E07EA00828B838CF0125E53FAA3125E53FBD7
:0E07F800C007C006C005C003C0027401C0E007
:0A080600E4C0E07419C0E07408C0FB
:09081000E0C002C0039000812247
:0E08190015811581D002D003D005D006D0077E
:0E0827008D828E838FF012219DAA82AB83AC4E
:09083500F08A058B068C07809EF9
:01083E002297
:09083F0012218BAD82AE83AFF0F3
:0E084800ED4E605C74052DFAE43EFB8F048AD1
:0E085600828B838CF0125E53FAA3125E53FB6A
:0E086400C007C006C005C003C002E4C0E0C06B
:0A087200E07483C0E07408C0E0C029
:07087C0002C003900081227D
:0E08830015811581D002D003D005D006D00714
:0E0891008D828E838FF012219DAA82AB83ACE4
:09089F00F08A058B068C0780A08D
:0108A800222D
:03B383003BB38059
:03B38600B4B280DE
:06B38900BDB280000000CF
:0408A90075C90022EB
:0408AD0043C9082211
:0E08B100740F55C944A0F5C9740F55C94450C1
:0308BF00F5C92256
:0308C2000208B178
:0508C50075C903C2AF7C
:0408CA00000208CA56
:0C08CE0043FD08C2831214C112152D1244
:0808DA0066BD7582000214C81E
:0608E200309703A283B36E
:0108E80022ED
:0E08E90090E007E0FF90E006E062078F8202D9
:0208F70030D4FB
:0908F9001230B890E007E4F09021
:04090200E006F022F9
:0E09060090E007E0FF90E006E06207EFF4FFEC
:0E091400F582C00712095B900190123C8BD057
:06092200078F8202095B51
:030928000230B9E1
:0D092B00AF8290E006E0FEF4FDEF52059073
:0A093800E006EF4EF08D820208E9A0
:0D094200AF8290E006E0FEEF5EFDEFF49066
:09094F00E0065EF08D820208E969
:0309580002095B36
:0D095B00AF8290E007E06FF08F820208E9A4
:0A096800C01AE581F51A2407F58195
:0E09720090E008E0FDA3E0FEA3E0FFED4E7074
:0B0980000A90E00BE4F0A3F0020B0F64
:0C098B00123CE4AE82AF83E51A2403F8AE
:0E099700A60608A60790E008E0FBA3E0FCA37C
:0C09A500E0FDE51A2405F8A60308A604EE
:0C09B10008A605E51A2405F886820886D1
:0E09BD00830886F0125E53FAA3125E53FFE524
:0C09CB001A2405F8740226FCE40836FD2E
:0E09D7000886068C828D838EF0125E53FCA380
:0C09E500125E53FDEC2AFAED3FFFE51A0C
:0C09F1002403F8EAC396FAEF0896FFA86A
:0A09FD001A08A60208A607E51A244E
:0E0A070005F8740426FBE40836FC0886058B0F
:0E0A1500828C838DF0125E53FBA3125E53FCA5
:0C0A2300A3125E53FDE51A2405F8A6039B
:060A2F0008A60408A6055C
:0C0A3500E51A2405F8E4C0E0E4C0E0E4A9
:0E0A4100C0E086820886830886F012008515C4
:0A0A4F0081158115817003020AFB76
:0C0A5900E51A2405F886820886830886CA
:0B0A6500F0125E53FCA3125E53FDE58F
:0C0A70001A2405F8740226FAE40836FB8C
:0E0A7C000886078A828B838FF0125E53FEA3DA
:0C0A8A00125E53FFEE2CFAEF3DFBE51A64
:0C0A96002403F8EAC396FAEB0896FBA8CC
:0C0AA2001A08C3EA96EB0896501BEE2CD5
:0C0AAE00FCEF3DFDE51A2403F8ECC396B4
:0C0ABA00FCED0896FDA81A08A60408A68A
:010AC600052A
:0C0AC700E51A2405F8740426FDE4083646
:0E0AD300FE0886078D828E838FF0125E53FD23
:0B0AE100A3125E53FEA3125E53FFE55C
:0C0AEC001A2405F8A60508A60608A607AF
:030AF800020A35BA
:090AFB00E51A2403F8A91A099078
:0B0B0400E00BE726F009E70836A3F03D
:060B0F00851A81D01A22B4
:0A0B1500C01AE581F51A240CF581E1
:0E0B1F00AD82AE83AFF07C01125E53FAA312DA
:0B0B2D005E53FBBA0005BB0002800B0A
:080B3800BA5A05BB0002801E41
:030B4000020F267B
:090B430090E008E4F0A3F0A3F037
:0E0B4C007C008D828E838FF0745A122FDFA3EF
:040B5A00E4122FDF93
:090B5E00EC7006758201020F38EB
:0A0B6700E51A24FDF8B687028003AA
:030B7100020D155D
:0A0B7400E51A24FAF8E51A2407F93F
:0A0B7E00E6F70809E6F70809E6F7B4
:0E0B880090E008E0FAA3E0FBA3E0FCEA4B607B
:0E0B960078C005C006C00774072AFDE43BFEC8
:0E0BA4008C078D828E838FF0125E53FDA3129C
:090BB2005E53FEA3125E53FFE541
:0C0BBB001A2407F8C005C006C007868297
:0E0BC7000886830886F01200851581158115B9
:0B0BD500816008D007D006D005802FFB
:0E0BE000D007D006D00574042AFAE43BFB8A45
:0E0BEE00828B838CF0125E53FAA3125E53FBCF
:0E0BFC00A3125E53FC90E008EAF0A3EBF0A316
:050C0A00ECF0020B8874
:0E0C0F0090E008E0FAA3E0FBA3E0FCEA4B70E3
:040C1D0003020B4C77
:0B0C2100A81A08A60208A60308A604F3
:0C0C2C00A81A08740426FAE40836FB0835
:0C0C380086048A828B838CF0E51A240A63
:0D0C4400F8125E53F6A3125E5308F6A312D9
:0C0C51005E5308F6E51A240AF8E608468F
:050C5D007003020B4CC6
:0C0C6200C005C006C007E51A240AF8749B
:0E0C6E000726FDE40836FE0886078D828E8379
:0D0C7C008FF0125E53FDA3125E53FEA31213
:0C0C89005E53FFE51A2407F8C005C00602
:0E0C9500C00786820886830886F01200851547
:0E0CA30081158115816008D007D006D005802C
:010CB1004101
:0C0CB200E51A240AF8740426FDE4083654
:0E0CBE00FE0886078D828E838FF0125E53FD36
:0E0CCC00A3125E53FEA3125E53FF8A828B8337
:0E0CDA008CF0ED122FDFA3EE122FDFA3EF122E
:0B0CE8002FDFD007D006D005020C2C37
:0E0CF3008A828B838CF0125E53FAA3125E533A
:0C0D0100FBA3125E53FCA81A08A602080F
:080D0D00A60308A604020C2C49
:0A0D1500E51A24FDF8B682028003FF
:030D1F00020B4C78
:0C0D2200E51A2404F8E4F608F608760050
:0C0D2E0090E008E0FAA3E0FBA3E0FCA8C2
:0A0D3A001A08A60208A60308A60482
:0C0D4400A81A08E4C0E0E4C0E0E4C0E04D
:0E0D500086820886830886F0120085158115BC
:080D5E008115817003020B4CAA
:0C0D6600A81A0886820886830886F0C060
:0E0D720007C006C005122DB6E5828583F0D0BD
:0C0D800005D006D00745F07003020EE419
:0C0D8C00C005C006C007A81A08860208AF
:0A0D98008603088604A81A08E51A6D
:0E0DA200240AF9740726F7E4083609F7080951
:0C0DB000E6F7E51A240AF886820886831C
:0E0DBC000886F0125E53FDA3125E53FEA312D2
:0E0DCA005E53FFC005C002C003C0047488C0A1
:0E0DD800E08D828E838FF0121FACAE82AF834F
:0E0DE600E58124FCF581D005EE4FD007D00644
:070DF400D0056003020ED5DB
:0C0DFB00E51A240AF88682088683088620
:0D0E0700F0E4122FDFA3E4122FDFA3E412AA
:0C0E14002FDFE51A2404F8E608466054BD
:0C0E2000C005C006C007E51A2404F874E1
:0C0E2C000426FAE40836FB088604A81A25
:0E0E380008740426FDE40836FE0886078D8245
:0E0E46008E838FF0125E53FDA3125E53FEA347
:0E0E5400125E53FF8A828B838CF0ED122FDF2B
:0E0E6200A3EE122FDFA3EF122FDFD007D00672
:040E7000D005802DFC
:0C0E7400A81A08740426FAE40836FB08EB
:0E0E800086048A828B838CF0125E53FAA312D2
:090E8E005E53FBA3125E53FC90BD
:0A0E9700E008EAF0A3EBF0A3ECF092
:0C0EA100A81A08740426FAE40836FB08BE
:0E0EAD0086048A828B838CF0E4122FDFA3E48C
:0E0EBB00122FDFA3E4122FDFC007C006C00510
:0C0EC900120968D005D006D007020D22E7
:0E0ED500C007C006C005120F3ED005D006D0E3
:010EE3000707
:0A0EE400A81A08E51A2404F9E6F73D
:0C0EEE000809E6F70809E6F7A81A0874DE
:0E0EFA000426FAE40836FB0886048A828B83FD
:0D0F08008CF0125E53FAA3125E53FBA3128D
:0C0F15005E53FCA81A08A60208A60308F8
:050F2100A604020D44CE
:0D0F26008D828E838FF0E4122FDFA3E41282
:050F33002FDF758203B1
:060F3800851A81D01A2287
:090F3E0090EB1B75F00002207518
:0A0F4700C01A85811AC082C083C061
:0C0F5100F0120F3EA81A08740726FAE4FC
:0D0F5D000836FB0886048A828B838CF01214
:0A0F6A005E53FDA3125E53FEA312B6
:0A0F74005E53FFED4E7003020FF80C
:0B0F7E0090E008E0FDA3E0FEA3E0FF10
:0E0F8900E4C0E0E4C0E0E4C0E08D828E838F1F
:0D0F9700F01200851581158115816055A8A7
:0C0FA4001A08C005C006C0078682088637
:0E0FB000830886F01200851581158115816079
:030FBE00028006A8
:060FC1001209680210573E
:0E0FC700C002C003C00474042DFAE43EFB8F88
:0D0FD500048A828B838CF0125E53FAA31203
:0E0FE2005E53FBA3125E53FC8A058B068C0740
:080FF000D004D003D00280916F
:0E0FF80090EB30E0FDA3E0FEA3E0FF8A828BC9
:0E100600838CF0ED122FDFA3EE122FDFA3EF8D
:0C101400122FDFA81A08740426FDE4085F
:0E10200036FE08860790E008E0FAA3E0FBA386
:0E102E00E0FC8D828E838FF0EA122FDFA3EBA1
:09103C00122FDFA3EC122FDFA834
:0C1045001A0890E008E6F008A3E6F008A6
:06105100A3E6F01209689D
:06105700851A81D01A2267
:0A105D00C01A85811AAD82AE83AF80
:0C106700F0C007C006C005E51A24FCF824
:0E107300E6C0E008E6C0E08D828E838FF012AA
:0E1081002D0415811581D005D006D0078D8273
:0A108F008E838FF0120F47D01A2253
:0D109900AD82AE83AFF0C007C006C00512E7
:0E10A6002D52D005D006D0078D828E838FF09C
:0310B400020F47E1
:0D10B700AD82AE83AFF0C007C006C00512C9
:0E10C4002D8ED005D006D0078D828E838FF042
:0310D200020F47C3
:0A10D500C01A85811AC082C083C0D2
:0C10DF00F0A81A0886820886830886F0B4
:0A10EB00125E53FBA3125E53FCE5F6
:0C10F5001A24FCF88602088607EA2BFB90
:0C110100EF3CFCA81A08868208868308D0
:0C110D0086F0EB122FDFA3EC122FDF1294
:061119000968851A81D06F
:02111F001A2292
:0E112100AD82AE83AFF074072DFDE43EFE8D6F
:0E112F00828E838FF0125E53FDA3125E53FE7C
:0E113D00A3125E53FFE4C0E0E4C0E0E4C0E0B3
:0E114B008D828E838FF012008515811581151F
:0711590081700474018001A4
:01116000E4AA
:09116100FD3395E08D82F5832237
:0E116A00AD82AE83AFF0125E53FBA3125E5354
:0E117800FC74022DFDE43EFE8D828E838FF00E
:0E118600125E53FDA3125E53FEED2BFBEE3CFA
:051194008B82F58322AF
:0D119900125E53FDA3125E538D82F583227A
:0E11A60090E008E0FDA3E0FEA3E0FFE4C0E05F
:0D11B400E4C0E0E4C0E08D828E838FF01275
:0E11C10000851581158115817004740180016F
:0111CF00E43B
:0411D000FDB4010069
:0A11D400E433FD7F008D828F83223B
:0D11DE001211A6E5828583F045F0600A90AD
:0911EB00E00BE0FEA3E0FF80042C
:0411F4007E007F00FA
:0511F8008E828F8322AE
:0A11FD00C01A85811AC082C083C0A9
:0D120700F090E008E0FAA3E0FBA3E0FCA8F3
:0C1214001A08C002C003C00486820886CD
:0E122000830886F01200851581158115816006
:03122E0002802E0D
:0E12310074042AFDE43BFE8C078D828E838FB1
:0C123F00F0125E53FDA3125E53FEA312DA
:0E124B005E53FF90E008EDF0A3EEF0A3EFF08D
:061259001209680212FEFA
:0E125F00E4C0E0E4C0E0E4C0E08A828B838C4F
:0E126D00F01200851581158115816041740411
:0E127B002AFDE43BFE8C078D828E838FF012DD
:0A1289005E53FDA3125E53FEA31294
:0C1293005E53FFA81A08C005C006C00783
:0E129F0086820886830886F012008515811568
:0D12AD0081158160088D028E038F0480A5DD
:0C12BA00EA4B604074042AFAE43BFBA8F5
:0C12C6001A08740426FDE40836FE0886B1
:0D12D200078D828E838FF0125E53FDA312F4
:0E12DF005E53FEA3125E53FF8A828B838CF057
:0C12ED00ED122FDFA3EE122FDFA3EF1293
:0512F9002FDF1209685F
:0C12FE00A81A08740426FDE40836FE0857
:0E130A0086078D828E838FF0E4122FDFA3E41E
:09131800122FDFA3E4122FDFA85D
:0C1321001A08740726FDE40836FE088652
:0E132D00078D828E838FF0E4122FDFA3E4126F
:08133B002FDFA3E4122FDF8570
:051343001A81D01A22FE
:09B38F00000000150B0000000095
:03134800022BAACB
:0A134B00C01A85811A05810581ADE5
:0C13550082AE83AFF0A81A08E4F608F698
:0E13610090E00DE0FAA3E0FBA3E0FCEA4B7085
:09136F0008A81A087601087600AE
:0E13780074022DFAE43EFB8F048A828B838C74
:0C138600F0E51A24F8F8E6122FDFA308A7
:0E139200E6122FDF74042DFAE43EFB8F048A6E
:0C13A000828B838CF0E51A24F5F8E6122D
:0C13AC002FDFA308E6122FDFA308E612D3
:0C13B8002FDF8D828E838FF0E51A24FC5D
:0C13C400F8E6122FDFA308E6122FDF90DE
:0C13D000E00DEDF0A3EEF0A3EFF0A81A82
:0C13DC0008B6011108B6000DE51A24FC4B
:0913E800F88682088683122BBAF4
:0913F100900000851A81D01A2237
:0A13FA00C01A85811A0581058105DE
:0E1404008190E00DE0FDA3E0FEA3E0FFED4EC1
:0514120070030214BB91
:0C141700A81A08A60508A60608A607905B
:0C142300E00DE4F0A3F0A3F0A81A087498
:0E142F000226FAE40836FB0886048A828B83C4
:0C143D008CF0125E53FAA3125E53FBA861
:0C1449001A08740426FCE40836FE08862D
:0D145500078C828E838FF0125E53FCA31271
:0E1462005E53FEA3125E53FFC003C002C0041F
:0A147000C006C007748CC0E07414BD
:0C147A00C0E0C002C003A81A0886820867
:0614860086830886F022B7
:0E148C00158115811581D002D00390E00DE08E
:0E149A00FDA3E0FEA3E0FFED4E60168D828EF6
:0E14A800838FF0125E53FDA3125E53FE8D8201
:0514B6008E83122BBA29
:0614BB00851A81D01A22FF
:0714C10043FE0A43FD042273
:0814C800AF827E01C2AF7D007E
:0314D000BD080054
:0E14D3005025EE5FFCED6010EC600D8DF00515
:0414E100F0EC8002A9
:0214E500C3132F
:0414E700D5F0FBFC45
:0E14EB00EC24FF9282D293C293EE2EFE0D806F
:0114F900D61C
:0914FA00D291C291D2AF8F1422ED
:0415030085148222A7
:0E150700AF82C2AFEF24FF9283309703A2831E
:01151500B322
:03151600D2AF222F
:0E151900121503AF828F065306DF8E0743F4D0
:06152700E08F820214C8EF
:0E152D00121503AF824307208F821214C8AF3D
:07153B00F453071F8FF42297
:0C154200AF83E58290E010F0A3EFF022F0
:0600E200E478FFF6D8FDF2
:05010C0090E099E4F011
:09154E00AF82BF0D0490000022E1
:0E15570090E099E0FE701DC00790E01275F064
:0E15650000123835AD82AE831581ED4E702533
:0815730090E0997401F0801D65
:0E157B00BF0A1AC00790E01275F00012383552
:0E158900AE82AF831581EE4F600590E099E4CD
:01159700F063
:0D15980090EB2475F00012207590000122E8
:0A15A500C01A85811A05810581AD89
:0D15AF0082AE83AFF07C01125E53FAA312EE
:0B15BC005E53FBBA0005BB0002801468
:0815C700BA6805BB0002806553
:0915CF00BA7A06BB0003021722E0
:0315D80002173EB9
:0E15DB00C007C006C00512178BE582D005D0F0
:0E15E90006D00790E098F090E11AE4F0A3F02D
:0D15F70090E01275F000C007C006C005129C
:0D1604003942AA82AB83D005D006D007A8DA
:0A1611001A08A60208A603A81A088A
:0E161B00B6FF1F08B6FF1B7C008D828E838FEA
:0B162900F07468122FDFA3E4122FDF23
:09163400EC70C075820102175030
:0C163D00A81A08B60A0608B60002804091
:0E16490090E11AE0FAA3E0FBC3EA947FEB64A1
:0E165700809480509BC005C006C00790E11A29
:0C16650074012AF0E43BA3F0EA249AFA96
:0A167100EB34E0FBA81A0886078A94
:0E167B00828B83EFF0D007D006D0050215F762
:0E168900C005C006C00790E11AE0FAA3E0FB1E
:0D16970090E11A74012AF0E43BA3F0EA246C
:0A16A4009AF582EB34E0F583E4F0E0
:0B16AE00C007C006C005749AC0E074BD
:0C16B900E0C0E0E4C0E090E098E0C0E099
:0E16C50090000075F000121FACE58124FCF5CA
:0E16D30081D005D006D00790EB30E0FAA3E0FE
:0E16E100FBA3E0FFC005E4C0E0C0E0C0E07481
:0E16EF0085C0E08A828B838FF0121FACAE8222
:0E16FD00AF83E58124FCF581D005EE4FD007C8
:0E170B00D006D0057023FC8D828E838FF07483
:091719007A122FDFA3E4122FDF86
:0C172200EC600AE51A24FDF8B685028090
:01172E0005B5
:05172F00758201801C21
:0A17340090E11AE4F0A3F00215F7AB
:0D173E008D828E838FF0E4122FDFA3E41262
:05174B002FDF75820391
:06175000851A81D01A2267
:0A1756007480C0E07418C0E074E075
:0E176000C0E0E4C0E090E01275F0001237B671
:0E176E00E58124FCF581E4C0E0C0E0C0E0901D
:0E177C00EB2475F00012179815811581158168
:01178A00223C
:09B39800000000A51500000000F2
:0D178B0090E11CE0FF90E11C04F08F822231
:0A179800C01A85811AC082C083C008
:0E17A200F090EB2DE0FAA3E0FBA3E0FC8A053B
:0417B0008B068C0711
:0C17B400A81A08C005C006C007868208FD
:0E17C00086830886F01200851581158115813B
:0E17CE006030E4C0E0E4C0E0E4C0E08D828E54
:0E17DC00838FF012008515811581158160162E
:0E17EA008D828E838FF0125E53FDA3125E532C
:0817F800FEA3125E53FF80B452
:0C180000A81A08C005C006C007868208B0
:0E180C0086830886F0120085158115811581EE
:04181A0060028003E5
:03181E000218AB02
:0C182100A81A0886820886830886F0EA70
:0B182D00122FDFA3EB122FDFA3EC1241
:061838002FDFA81A089042
:0D183E00EB2DE6F008A3E6F008A3E6F0A805
:0C184B001A08740726FDE40836FE088623
:0D185700078D828E838FF07401122FDFA8A1
:0C1864001A08740526FDE40836FE08860C
:0E187000078D828E838FF0E4122FDFA3E41227
:0C187E002FDFE51A24FBF886050886061B
:0E188A00088607C005C006C0077481C0E0A82C
:0B1898001A0886820886830886F0127A
:0818A300201EE58124FCF58103
:0618AB00851A81D01A220B
:0A18B100C01A85811AC082C083C0EE
:0E18BB00F0E5812406F58190EB30E0FAA3E021
:0C18C900FBA3E0FCE51A2407F8A60208C7
:0E18D500A60308A60490EB2DE0FAA3E0FBA307
:0C18E300E0FCE51A2404F8A60208A603A5
:0318EF0008A60444
:0A18F200E51A2404F8A91A09E7C05A
:0E18FC00E009E7C0E009E7C0E08682088683C5
:0E190A000886F0120085158115811581604256
:0C191800E51A2404F8E4C0E0E4C0E0E4B8
:0E192400C0E086820886830886F012008515D2
:0C19320081158115816021E51A2404F85C
:0E193E0086820886830886F0125E531818F61B
:0E194C00A3125E5308F6A3125E5308F68098AD
:0B195A00E51A2404F8E60846700302BA
:021965001BD194
:0C196700A81A0886820886830886F01201
:0E19730020B3E5828583F045F07003021AD59B
:0C198100A81A08740726FDE40836FE08CA
:0D198D0086078D828E838FF0E4122FDF908D
:0C199A00EB2DE0FDA3E0FEA3E0FFE51A4A
:0B19A6002404F8A60508A60608A60702
:0C19B100E51A2404F8E4C0E0E4C0E0E41F
:0E19BD00C0E086820886830886F01200851539
:0B19CB0081158115816073A81A08E5E2
:0C19D6001A2404F9E7C0E009E7C0E009AA
:0E19E200E7C0E086820886830886F012008542
:0C19F000158115811581602BA81A08864E
:0E19FC0005088606088607C005C006C00774E9
:0C1A0A0087C0E0E51A2404F886820886F4
:0D1A1600830886F0121BD7E58124FCF581C2
:0C1A2300E51A2404F886820886830886F1
:0E1A2F00F0125E531818F6A3125E5308F6A3C9
:081A3D00125E5308F60219B114
:0C1A4500A81A08740326FDE40836FE0809
:0E1A510086078D828E838FF0125E53FCA312E7
:0A1A5F005E53FB4C6070A81A08E506
:0C1A69001A24FBF9E7C0E009E7C0E0091F
:0E1A7500E7C0E086820886830886F0120085AE
:0C1A8300158115811581604AA81A089091
:0D1A8F00EB30E6F008A3E6F008A3E6F0A8AF
:0C1A9C001A08740526FDE40836FE0886D2
:0E1AA80007C004C003E4C0E0C0E0C0E07483E7
:0A1AB600C0E074CBC0E0741AC0E079
:0B1AC000C004C0038D828E838FF022D3
:0A1ACB00E58124FCF581D003D0046E
:0C1AD50090EB2DE0FCA3E0FBA3E0FAA8DE
:0C1AE1001A08C004C003C00286820886F8
:0E1AED00830886F01200851581158115816031
:031AFB0002802244
:0E1AFE008C828B838AF0125E53FDA3125E531E
:0E1B0C00FEA3125E53FF90EB2DEDF0A3EEF062
:061B1A00A3EFF0021BBF67
:0C1B20008C058B068A07E51A2404F8A641
:071B2C000508A60608A60744
:0B1B3300E51A2404F8E60846700302DF
:021B3E001BBFCB
:0C1B4000E51A2404F886820886830886D3
:0C1B4C00F0125E53FDA3125E53FEA312C4
:0C1B58005E53FFA81A08C005C006C007B5
:0E1B640086820886830886F01200851581159A
:071B7200811581600280363D
:0C1B7900A81A0886820886830886F012ED
:0A1B85005E53FAA3125E53FBA31295
:0C1B8F005E53FCE51A2404F886820886E8
:0E1B9B00830886F0EA122FDFA3EB122FDFA3E0
:061BA900EC122FDF80109A
:0C1BAF00E51A2404F8A60508A60608A6FE
:041BBB0007021B33CF
:0C1BBF00E51A2407F890EB30E6F008A3CC
:061BCB00E6F008A3E6F0BD
:061BD100851A81D01A22E2
:0A1BD700C01A85811AC082C083C0C5
:0C1BE100F0A81A08740726FAE40836FB86
:0E1BED000886048A828B838CF0125E53FF20E0
:051BFB00E003021CEDF7
:0C1C0000A81A08740326FDE40836FE084C
:0E1C0C0086078D828E838FF0125E53FEA31228
:091C1A005E53FF4E7003021CED45
:0C1C2300A81A0890EB30E6F008A3E6F0E9
:0D1C2F0008A3E6F08A828B838CF074021209
:0C1C3C002FDFC002C003C004A81A087407
:0E1C48000526FBE40836FC088605C007C0042C
:0C1C5600C003C002E51A24FAF8E6C0E062
:0C1C620008E6C0E008E6C0E0E51A24FD3A
:0A1C6E00F8E6C0E07485C0E0741CC5
:0D1C7800C0E0C006C0078B828C838DF02277
:0E1C8500AE82E58124FCF581D002D003D004AC
:0E1C9300D007EE3395E0FFBE020BBF0008D075
:071CA10004D003D0028016FD
:0E1CA800D004D003D002BE0305BF00028008A6
:081CB600E51A24FDF8B68324B1
:0C1CBE00A81A08E6C0E008E6C0E008E64E
:0C1CCA00C0E0A81A0886820886830886FD
:0C1CD600F01218B1158115811581800BEA
:0B1CE2008A828B838CF07401122FDFCC
:061CED00851A81D01A22C5
:0E1CF300AD82AE83AFF090EB30E0C0E0A3E036
:0D1D0100C0E0A3E0C0E08D828E838FF01261
:091D0E0018B1158115811581221F
:0C1D170090E11C748AF090E11EE4F09052
:0D1D2300E11DF090EB2DF0A3E4F0A3F09093
:091D3000EB30F0A3E4F0A3F02273
:0A1D3900C01A85811A058105810595
:0E1D43008190E1FFE4F090EB2DE0FDA3E0FEC7
:0C1D5100A3E0FFA81A08A60508A60608D3
:021D5D00A607D7
:0C1D5F00A81A08E4C0E0E4C0E0E4C0E022
:0E1D6B0086820886830886F012008515811591
:0C1D7900811581607BA81A08740826FA06
:0E1D8500E40836FB0886048A828B838CF012F9
:0C1D93005E536042A81A08740726FDE4A5
:0E1D9F000836FE0886078D828E838FF0740151
:0E1DAD00122FDF8A828B838CF0E4122FDFE48A
:0C1DBB00C0E0C0E0C0E07482C0E0A81AE4
:0E1DC7000886820886830886F0121BD7E58105
:041DD50024FCF58174
:0C1DD900A81A0886820886830886F0128B
:0D1DE5005E531818F6A3125E5308F6A31201
:071DF2005E5308F6021D5FBD
:061DF900851A81D01A22B8
:081DFF0090E11DE0FF700122DC
:0C1E070090E11EE0FE75F007A4FD241F12
:0C1E1300F582E434E1F583E090E200F099
:0A1E1F00ED241FFDE434E1FC8D8288
:0E1E29008C83A3E0F9A3E0FAA3E0FB90E201B2
:0E1E3700E9F0A3EAF0A3EBF08D828C83A3A365
:0E1E4500A3A3E0FBA3E0FCA3E0FD90E204EB0E
:0E1E5300F0A3ECF0A3EDF07D000EBE00010D3B
:0E1E6100C0077420C0E0E4C0E08E828D8312C2
:0E1E6F005E6FAD8215811581D00790E11EEDEA
:0E1E7D00F0EF1490E11DF090E204E0FDA3E010
:0B1E8B00FEA3E0FFED4E6003021F37D6
:0E1E960090EB2DE0FAA3E0FBA3E0FC90E20746
:081EA400EAF0A3EBF0A3ECF05F
:0E1EAC0090E207E0FAA3E0FBA3E0FCE4C0E054
:0D1EBA00E4C0E0E4C0E08A828B838CF0126B
:0B1EC700008515811581158170012236
:0A1ED20090E1FFE0FC6003121D39EF
:0E1EDC0090E207E0FAA3E0FBA3E0FC90E20135
:0E1EEA00E0C0E0A3E0C0E0A3E0C0E090E200B2
:0E1EF800E0C0E08A828B838CF0121BD7E5815C
:0E1F060024FCF58190E207E0FAA3E0FBA3E0E3
:0D1F1400FC8A828B838CF0125E53FAA312BC
:091F21005E53FBA3125E53FC9019
:0D1F2A00E207EAF0A3EBF0A3ECF0021EAC1E
:0E1F370090E200E0FCBC811474072DF9E43E3A
:0E1F4500FA8F0389828A838BF07401122FDFDA
:0E1F530090E201E0C0E0A3E0C0E0A3E0C0E047
:0E1F6100C0048D828E838FF0121BD7E5812481
:041F6F00FCF58122DA
:0A1F730090E1FFE0FF6003121D394A
:0B1F7D00121DFF90E11DE0FF7E0090B0
:0E1F8800E1FFE07C002FFFEC3E8F82F583220C
:0E1F960090E11DE0FF7E0090E1FFE07C002F57
:081FA400FFEC3E8F82F5832261
:0A1FAC00C01A85811AAD82AE83AF22
:0E1FB600F090E11DE0FCBC200590000180577A
:0E1FC40090E11EE02C541FFB90E20AF0EB753A
:0A1FD200F007A4FB241FF582E4349D
:0A1FDC00E1F583E51A24FDF8E6F0B4
:0A1FE600EB241FFBE434E1FA8B82C8
:0C1FF0008A83A3E51A24FAF8E6F0A3089F
:0E1FFC00E6F0A308E6F08B828A83A3A3A3A3DA
:0E200A00EDF0A3EEF0A3EFF090E11DEC04F07A
:0320180090000035
:03201B00D01A22B6
:0A201E00C01A85811AAD82AE83AFAF
:0E202800F090EB30E0FAA3E0FBA3E0FCC00474
:0C203600C003C002E51A24FAF8E6C0E07E
:0C20420008E6C0E008E6C0E0E51A24FD56
:0E204E00F8E6C0E08D828E838FF0121BD7E57E
:0E205C008124FCF581D002D003D00490EB303B
:0B206A00EAF0A3EBF0A3ECF0D01A2288
:0E207500AD82AE83AFF0ED4E603374072DFAEE
:0E208300E43EFB8F048A828B838CF0125E5346
:06209100FCBC010280030B
:03209700BC021870
:0E209A0074082DFDE43EFE8D828E838FF0745F
:0A20A80001122FDF90E1FF7401F038
:0120B200220B
:0E20B300AD82AE83AFF074072DFDE43EFE8DCE
:0E20C100828E838FF0125E53FDE4BD00010499
:0420CF00FDB401005B
:0A20D300E433FD7F008D828F83222D
:03B3A100000000A9
:03B3A400000000A6
:0A20DD00C01A85811AC082C083C0BA
:0C20E700F005810581E4FBFCE51A2404EF
:0920F300F8E4F608F67D007E0019
:0C20FC00C003C00490E20CE0FC7B00E597
:0C2108001A2404F8C3E69C08E664808BEF
:0E211400F063F08095F0D004D0035061C0035A
:0A212200C004ED240FF582EE34EB4B
:0C212C00F583E0FBA3E0FCA3E0FFA81A91
:0E21380008C003C004C007868208868308869C
:0E214600F01200851581158115816006D00408
:04215400D003800A2A
:0A215800D004D0038B828C83802317
:0C21620074032DFDE43EFEE51A2404F891
:06216E0006B6000208069F
:0B217400E51A2404F886030886040224
:02217F0020FC42
:042181008B828C833E
:06218500851A81D01A2228
:0E218B0090EB0FE0FDA3E0FEA3E0FF8D828E3F
:04219900838FF0221E
:0E219D001220DDE5828583F02401FEE435F09A
:0E21AB00FFC006C007900003122FFBAE82AFEC
:0C21B9008315811581EE240FF582EF34B0
:0C21C500EBF583E0FDA3E0FEA3E0FF8D3E
:0621D100828E838FF022D4
:0C21D7001220DDAE82AF83EE2402FEEF8A
:0C21E30034E0FF8E828F83E0FD43058016
:0D21EF008E828F83EDF090EB3375F00002CF
:0221FC0020754C
:0A21FE00C01A85811AC082C083C098
:0C220800F0E5812405F581A81A08868203
:0C2214000886830886F01257EFC8E51A10
:0E2220002404C8A68208A6837A007C007B00F6
:02222E007F002F
:0E22300090E20CE0FE7D00C3EA9EEC64808D1F
:0B223E00F063F08095F040030222ECFA
:0B224900C002C004EB240FF582EF344C
:0C225400EBF583E0FCA3E0FDA3E0FE8CB2
:0E226000828D838EF0125E53FCA3125E53FD3E
:0E226E00A3125E53FEC007C004C003C002E509
:0C227C001A2404F8E6C0E008E6C0E0C048
:0C22880004C005C006A81A08868208865B
:0E229400830886F0123AC8AD82AE83E581243D
:0E22A200FBF581D002D003D004D007D004D0C9
:0C22B00002ED4E7028EB240FF582EF3495
:0A22BC00EBF583E51A2406F8E0F6BE
:0C22C600A3E008F6A3E008F6E51A2406E1
:0B22D200F886820886830886F08015DD
:0C22DD0074032BFBE43FFF0ABA00010C65
:0322E9000222309E
:0622EC0090000075F000F7
:0622F200851A81D01A22BA
:0A22F800C01A85811A0581058105D1
:0E23020081AD82AE83AFF07C01125E53FAA370
:0C231000125E53FBBA0005BB00028015F2
:09231C00BA7806BB00030224316B
:09232500BA7F06BB000302250685
:03232E000225691C
:0E233100C007C006C00512178BE582D005D08C
:0E233F0006D00790E20BF090E20DE4F0A3F060
:0E234D00C005C006C00790E20DE0FAA3E0FB59
:0E235B00C005C003C002C002C0039000031200
:0E2369002FFBAE82AF8315811581D002D00309
:0A237700D005EE240FF582EF34EBE1
:0C238100F583A81A08E0F6A3E008F6A314
:0C238D00E008F6A81A08E4C0E0E4C0E094
:0E239900E4C0E086820886830886F012008584
:0E23A7001581158115817008D007D006D0056C
:0223B500806343
:0A23B700EA2402F582EB34E0F5831E
:0C23C100E4F0A81A08740526FDE40836B4
:0E23CD00FE0886078D828E838FF0125E53FD10
:0E23DB00A3125E53FEC007C006C005E4C0E0BA
:0A23E900C0E074FBC0E07423C0E004
:0823F300C005C0069000802225
:0E23FB0015811581D005D006D00790E20DE0C7
:0E2409002401F0A3E03400F0D007D006D00587
:0324170002234D50
:05241A0090E20CEAF065
:0E241F007C008D828E838FF07478122FDFA3E5
:04242D00E4122FDFA7
:09243100EC700675820102257BA6
:0E243A0090E20FE4F0A3F090E20DF0A3E4F0C6
:0E244800C005C006C00790E20DE0FAA3E0FB5D
:0E24560090E20CE0FF7E00C3EA9FEB64808EF4
:0E246400F063F08095F0D007D006D00540035D
:03247200022558E8
:0C247500C005C006C007EA2402F582EB97
:0C24810034E0F583E0D007D006D0052041
:05248D00E703022549F0
:0E249200C005C006C007C007C006C005C002D6
:0E24A000C003900003122FFBAA82AB831581AC
:0C24AE001581D005D006D007EA240FF5F8
:0C24BA0082EB34EBF583E0FAA3E0FBA317
:0E24C600E0FFC005C002C003C00790E20BE0BB
:0E24D400C0E090000075F000121FACAE82AFA9
:0E24E20083E58124FCF581D005EE4FD007D0B4
:0E24F00006D0057029FC8D828E838FF0747FDC
:0824FE00122FDFA3E4122FDF0F
:0C250600EC601090E20BE0FCE51A24FDF4
:07251200F8E6B504028005A4
:05251900758201805DE8
:0C251E0090E20DE0FBA3E0FCEB2402FBCC
:0C252A00EC34E0FC8B828C83E0FA53025E
:0E2536007F8B828C83EAF090E20FE02401F0AC
:05254400A3E03400F0EB
:0D25490090E20DE02401F0A3E03400F00268
:02255600244817
:0E25580090E20FE0FBA3E0FC4B600302243A8C
:0325660002241F2D
:0D2569008D828E838FF0E4122FDFA3E41229
:052576002FDF75820358
:06257B00851A81D01A222E
:09B3A700000000F8220000000083
:05258100AF82BFE00085
:072586004032BFE2028008B1
:05258D00BFE302800322
:03259200BFE52280
:0D25950090DF53E0FE8FE1900002C00612BF
:0E25A2003C8BD00690DF53E0FDEEB505012224
:0725B00075E1E675E1E6228A
:0325B7008FE1228F
:0E25BA00BFDE14AEE95306FD8EE975E1DF7554
:0225C800E1FE32
:0725CA00E5E920E10480F9BE
:0225D1008FE198
:0125D30022E5
:0E25D4007582E61225817582E6122581AFE937
:0625E2005307DF8FE92220
:0525E800AF82BF0B00F3
:0725ED004005EF24E5500456
:0425F4007582FF22CB
:0E25F8007582FFC0071225817582E5122581CC
:0E260600D0078F057E00ED24F5FDEE34FFFEBB
:0E261400C007C005C006900005122FFBAB8268
:0E262200AC83158115818B058C0674652DFD2A
:0D26300074013EFE43064090DF10EEF09076
:0D263D00DF11EDF07582E2122581D00790CB
:07264A00E211EFF08F822284
:0726510090E211E0F5822286
:0D265800E58290DF0BF090DF0BE0F58222B1
:0A266500C01A85811AAE82AF83907F
:0C266F00DF4BEFF090DF4CEEF0E51A249A
:0C267B00FCF890DF4D08E6F0E51A24FCA6
:0C268700F886067F0090DF4EEEF0E51AAA
:0E26930024F9F8E6084660317E4A7FDF7D00BC
:0326A100BD080071
:0C26A4005026E51A24F9F8ED26FAE408A7
:0E26B00036FB0886048A828B838CF0125E5300
:0B26BE00FA8E828F83F01EBEFF011F0A
:0326C9000D80D5AC
:0326CC00D01A22FF
:0B26CF00E582FF60067582E9022581AC
:0626DA007582E802258173
:0926E000E51530E0049000002231
:0826E90090DF17E054F7FFF049
:0D26F10090DF17E0FF530710BF010280F3D8
:0C26FE00E5E930E7FBAFBE5307FB8FBEE1
:0C270A00E5BE30E6FB75150090DF54744E
:0E27160001F090DF02740AF090DF0374E2F02D
:0E272400E0FF90DF0374104FF090DF0474307C
:0D273200F090DF05E4F090DF0C7432F090C1
:0E273F00DF0D74F5F07582191225E87582E73A
:0E274D001225817582E6122581E4C0E0C0E00D
:0E275B00C0E0E4C0E0C0E090FFFF122665E59C
:0E2769008124FBF581759120AFE95307DF8FC6
:0C277700E9AF9B5307FC8F9B43150175D5
:09278300825F1226589000012229
:0A278C00C01A85811AC082C083C004
:01279600F052
:0C27970090DF62E0FC20E4F8E51530E67D
:0627A3000590FFFF8055C8
:0827A900E51520E703122B11D6
:0C27B1007582E7122581E51A24FCF886E9
:0827BD000474022CF5D97C0024
:0C27C5008C027B00E51A24FCF8C3EA96A5
:0C27D100EB0896501FA81A088602088624
:0E27DD0003088607EC2AFAE43BFB8A828B8312
:0A27EB008FF0125E53F5D90C80D078
:0927F50075D90075D900900000AF
:0627FE00851A81D01A22A9
:09280400E51520E706122B114333
:02280D001510A4
:0D280F00122AEAE5828583F045F0702D90D5
:0E281C00E415E0FCA3E0FDA3E0FEA3E0FF0C4A
:0C282A00BC00090DBD00050EBE00010F32
:0E28360090E415ECF0A3EDF0A3EEF0A3EFF0AC
:0428440090000222DC
:0E28480090DF62E0FF30E12D90E415E0FCA38C
:0E285600E0FDA3E0FEA3E0FF0CBC00090DBDF9
:0728640000050EBE00010F8C
:0E286B0090E415ECF0A3EDF0A3EEF0A3EFF077
:0428790090000222A7
:08287D007582E31225817F0042
:0E28850090DF62E0FE20E4148F060FBE030019
:0E289300500C900006C007123C8BD00780E46A
:0E28A10090DF62E0FF20E40C7582E7122581D3
:0628AF007E017F00800C99
:0C28B50090DF62E0FD20E4F87E007F0070
:0C28C100E51530E40BC007C006122B80A8
:0428CD00D006D0075A
:0E28D10090E41DE0FAA3E0FBA3E0FCA3E0FD11
:0D28DF000ABA00090BBB00050CBC00010D7E
:0E28EC0090E41DEAF0A3EBF0A3ECF0A3EDF0F6
:0528FA008E828F832295
:0A28FF00C01A85811AAD82AE83AFC6
:0C290900F0E51A24FCF8E6C0E008E6C087
:0E291500E08D828E838FF012278C1581158144
:0B292300E51A24FCF886820886831267
:05292E002804D01A226C
:0A293300C01A85811AC082C083C05B
:0E293D00F0E5D9FC2480503290E40DE0FFA3B9
:0E294B00E0FEA3E0FDA3E0FC0FBF00090EBEFE
:0729590000050DBD00010C9B
:0E29600090E40DEFF0A3EEF0A3EDF0A3ECF089
:09296E001225D4900000022AE4B5
:0E297700EC24FB403290E409E0FFA3E0FEA355
:0E298500E0FDA3E0FC0FBF00090EBE00050D33
:04299300BD00010C76
:0E29970090E409EFF0A3EEF0A3EDF0A3ECF056
:0929A5001225D4900000022AE47E
:0D29AE008C027B00EA24FEFAEB34FFFBE50F
:0C29BB001A24FCF8C3E69A08E69B503290
:0E29C70090E405E0FFA3E0FEA3E0FDA3E0FC2A
:0D29D5000FBF00090EBE00050DBD00010C76
:0E29E20090E405EFF0A3EEF0A3EDF0A3ECF00F
:0929F0001225D4900000022AE433
:0429F9001C1C7B0027
:0C29FD00C3EB9C5023C004A81A088602FB
:0E2A0900088604088607EB2AFAE43CFC8A8261
:0E2A17008C838FF0E5D9122FDF0BD00480D80E
:0E2A2500E5D924D3FFE5D9FE30E75DEF339508
:0E2A3300E0FDC006C004C007C0057582041295
:0E2A4100372E15811581D004D00653067F7FF5
:0E2A4F0000C004C006C00775820312372E15A2
:0E2A5D00811581D00490E421E0FBA3E0FDA3ED
:0E2A6B00E0FEA3E0FF0BBB00090DBD00050E51
:042A7900BE00010F8B
:0E2A7D0090E421EBF0A3EDF0A3EEF0A3EFF058
:022A8B00803198
:0E2A8D0090E411E0FBA3E0FDA3E0FEA3E0FF58
:0D2A9B000BBB00090DBD00050EBE00010FB4
:0E2AA80090E411EBF0A3EDF0A3EEF0A3EFF03D
:082AB6001225D49000008026D7
:0E2ABE0090DF62E0FF53070CBF040E90DF5361
:0B2ACC00E0FF7007C0041225D4D00406
:0D2AD700AFE95307DF8FE97F008C828F830A
:062AE400851A81D01A22C0
:0C2AEA0090DF62E0FF20E004900000227A
:042AF6009000012229
:082AFA0090DF62E09000002271
:0E2B020090DF62E0FF5307047E008F828E8317
:012B100022A2
:0C2B1100E51520E766AEE27F00ACE38C27
:0C2B1D0005E4FC2EFEED3FFF4315809008
:0E2B2900DF4F747FF090DF0674D2F090DF175C
:052B3700E054F7FDF081
:0E2B3C00E5E930E7FBADE953057F8DE97582D1
:0E2B4A00E2C007C0061225817582E6122581C1
:0B2B5800D006D00774092EFEE43FFFFA
:0E2B6300ACE27D00AAE38A03E4FA2CFCEB3D11
:0B2B7100FDECC39EFCED9FFD20E7E79C
:042B7C0090000122A2
:0D2B80007582FF1225817582E51225819076
:0E2B8D00DF17E04408F0AFE953077F8FE9AF90
:0A2B9B001553077F8F155307EF8FC6
:052BA500159000012263
:02B2D800E0266E
:02B2DA008C27BF
:02B2DC00042844
:02B2DE00FF2847
:02B2E000332910
:02B2E200EA2A56
:02B2E400FA2A44
:02B2E600022B39
:02B2E800112B28
:02B2EA00802BB7
:0E2BAA0075E409D2B975E644AFD85307BF8F62
:022BB800D82221
:0C2BBA00AE82AF838EDC8FDD43E640224C
:0C2BC600C021C0E0C0F0C082C083C00786
:0E2BD200C006C005C004C003C002C001C000A0
:0E2BE000C0D075D000C2B9AFE45307BF8FE478
:0E2BEE00AFE65307BF8FE61213FAD2B9D0D06C
:0E2BFC00D000D001D002D003D004D005D00606
:0C2C0A00D007D083D082D0F0D0E0D021E1
:012C1600328B
:0800C000799FE94400601B7AFE
:0500C8000190B37878FF
:0300CD0004759324
:0A00D000EBE493F2A308B800020568
:0800DA0093D9F4DAF27593FFEB
:062C1700AD82AE83AFF0B8
:0E2C1D008D828E838FF0125E53FC60180DBD09
:032C2B0000010E97
:0E2C2E008C82C007C006C005122FF8D005D05A
:052C3C0006D00780DC5A
:012C41002270
:0E2C4200E582FFC4540F90B2EC93F582C007F8
:0E2C5000122FF8D007740F5F90B2EC93F5824C
:032C5E00022FF84A
:042C6100AF827E8040
:0B2C6500EE6025EE5FFDE4BD00010401
:042C7000FDB40100AE
:0D2C7400E43390B2FD93F582C007C0061254
:0C2C81002FF8D006D007EEC313FE80D859
:012C8D002224
:0EB2EC003031323334353637383961626364BD
:03B2FA0065660086
:03B2FD00303100ED
:0E2C8E0090B2D8E493FEA3E493FFC007C00603
:0E2C9C008E828F83120083D006D00790B3255E
:0E2CAA00E493FEA3E493FFC007C0068E828F62
:0E2CB80083120083D006D00790B305E493FE8C
:0D2CC600A3E493FFC007C0068E828F831227
:0E2CD3000083D006D00790B319E493FEA3E46B
:0E2CE10093FFC007C0068E828F83120083D03F
:042CEF0006D00722E2
:062CF300C01A85811AD011
:022CF9001A229D
:012CFB0022B6
:072CFC00900000E4F5F02256
:012D030022AD
:0A2D0400C01A85811AAD82AE83AFBC
:0E2D0E00F074022DFAE43EFB8F048A828B8360
:0C2D1C008CF0E51A24FCF8E6122FDFA36F
:0E2D280008E6122FDFC007C006C005123CE40B
:0E2D3600AB82AC83D005D006D0078D828E8391
:0C2D44008FF0EB122FDFA3EC122FDFD07A
:022D50001A2245
:0E2D5200AD82AE83AFF0125E53FBA3125E5350
:0E2D6000FC74022DF8E43EF98F02888289830C
:0E2D6E008AF0125E53F8A3125E53F9E82BFBB5
:0E2D7C00E93CFC8D828E838FF0EB122FDFA3DB
:042D8A00EC022FDF49
:0D2D8E00AD82AE83AFF0C007C006C00512D5
:0E2D9B003CE4AB82AC83D005D006D0078D821D
:0D2DA9008E838FF0EB122FDFA3EC022FDFE3
:0A2DB600C01A85811AC082C083C0D4
:0C2DC000F0123CE4AB82AC83A81A088639
:0D2DCC00820886830886F0125E53FAA31277
:0E2DD9005E53FFEBC39AFBEC9FFC0BBB0001AB
:012DE7000CDF
:0C2DE800A81A08740226FDE40836FE0854
:0E2DF40086078D828E838FF0125E53FDA31230
:0E2E02005E53FEC3ED9BEE9CE433FB3395E084
:0A2E1000FF8B828F83851A81D01A90
:012E1A002295
:0E2E1B00AD82AE83AFF0125E53FBA3125E5386
:0E2E2900FC74022DFDE43EFE8D828E838FF040
:0E2E3700125E53FDA3125E53FEED2BFBEE3C2C
:0E2E4500FCC004C003123CE4AE82AF83D00395
:0D2E5300D004EBC39EFBEC9F8B82F5832225
:0A2E6000C01AE581F51A2405F5817A
:0C2E6A00AD82AE83AFF07B007C00A81AA4
:052E760008E4F608F677
:0A2E7B00C003C004A81A08E51A24D9
:0E2E850003F9E62DF708E63E09F709A707E571
:0C2E93001A2403F886820886830886F063
:0E2E9F00125E531818F6A3125E5308F6A31223
:0C2EAD005E5308F6E51A2403F8E4C0E0C8
:0E2EB900E4C0E0E4C0E086820886830886F06C
:0E2EC7001200851581158115817006D004D08A
:032ED5000380482F
:0E2ED800D004D003C007C006C005C004C0036C
:0C2EE600E4C0E0C0E0C0E0E51A2403F8FE
:0E2EF20086820886830886F0121798158115CF
:0E2F0000811581D003D004D005D006D007A8DB
:0C2F0E001A08740326F6E40836F60BBB24
:032F1A0000010CA7
:032F1D00022E7B06
:062F2000851A81D01A227F
:0A2F2600C01AE581F51A2405F581B3
:0C2F3000AD82AE83AFF07B007C00A81ADD
:052F3C0008E4F608F6B0
:0A2F4100C003C004A81A08E51A2412
:0E2F4B0003F9E62DF708E63E09F709A707E5AA
:0C2F59001A2403F886820886830886F09C
:0E2F6500125E531818F6A3125E5308F6A3125C
:0C2F73005E5308F6E51A2403F8E4C0E001
:0E2F7F00E4C0E0E4C0E086820886830886F0A5
:0E2F8D001200851581158115817006D004D0C3
:032F9B0003803B75
:0C2F9E00D004D003E51A2403F886820852
:0E2FAA0086830886F0C007C006C005C004C0BC
:0E2FB80003121CF3D003D004D005D006D007BE
:0C2FC600A81A08740326F6E40836F60B7F
:042FD200BB00010C33
:032FD600022F4186
:062FD900851A81D01A22C6
:0E2FDF0020F71030F6118883A88220F507F63F
:052FED00A883758300BC
:012FF20022BC
:032FF300F280F772
:022FF600F022C7
:032FF800023ABCDE
:0A2FFB00C01A85811AC082C083E568
:0A300500812408F581AF1A0FE51AC7
:0C300F002403F8A607087600087640E5C8
:0A301B001A24FCFCE51A2406F8A6AE
:0C30250004087600087640E51A2409F93A
:0C303100E51A2403F886820886830886CE
:0C303D00F0125E53FCE51A2406F88682AF
:0E3049000886830886F0125E53FB8CF0A4FA12
:0C305700AFF0A70209A707E51A2409043E
:0C306300F98707E51A2406F8740126FA24
:0E306F00E40836FD0886068A828D838EF012F4
:0C307D005E538CF0A4FCE51A2403F874E8
:0E3089000126FAE40836FD0886068A828D8349
:0E3097008EF0125E53FA8AF0EBA42C2FF7E5B0
:0C30A5001A2409F987060987078E828F1C
:0730B10083851A81D01A2269
:0130B80022F5
:0E30B9007F00C007121503AE82D007EE30E68E
:0330C700027F0184
:0730CA00EE30E703430704A9
:0330D1008F8222C9
:0E30D400AF82C007121503AE82D007EF30E0C6
:0630E200054306408007D3
:0730E8008E055305BF8D06A4
:0930EF00EF30E205430680800782
:0730F8008E0753077F8F06CE
:0530FF008E820214C8DE
:0E31040090E24CE4F0A3F090E24AF0A3E4F075
:0E31120090E24E7430F090EB3CE0FDA3E0FE46
:0E312000A3E0FF90E30174302DF0E43EA3F035
:06312E00A3EFF0023604DD
:0731340090E24E7430F0221E
:0A313B00C01A85811AC082C083C04B
:0C314500F0123104E51A24FCF8C3748079
:0C31510096E4089650067B807C00800A03
:0A315D00E51A24FCF8860308860436
:0E31670090E301E0FAA3E0FEA3E0FFC004C085
:0C31750003C003C004A81A08E6C0E0086C
:0E318100E6C0E008E6C0E08A828E838FF0127E
:0D318F003E03E58124FBF581D003D00490C0
:0C319C00E24AEBF0A3ECF08B828C838500
:0531A8001A81D01A227B
:0A31AD00C01AE581F51A2407F58128
:0D31B700123577E5828583F045F0604C12FB
:0C31C40035D0A81A080808A68208A683C7
:0E31D0001235BEAB82AC83ADF090EB3CE0FA62
:0E31DE00A3E0FEA3E0FF74302AFAE43EFEE513
:0C31EC001A2403F8E6C0E008E6C0E0C0CA
:0E31F80003C004C0058A828E838FF0123E034E
:09320600E58124FBF5810232C3CD
:0E320F0090E24CE0FEA3E0FF4E70030232C3DB
:0E321D001235D0E5828583F02430FEE435F0D2
:09322B00FFA81A087630087600AD
:0C323400A81A08C3E69E08E664808FF02C
:0E32400063F08095F05075C006C00790EB3C1F
:0C324E00E0FAA3E0FBA3E0FFA81A08E5EB
:0C325A001A2405F9E62AF708E63B09F7FC
:0C32660009A70790E24CE51A2403F8E0E9
:0C327200F6A3E008F6A81A0886040886F7
:0C327E0006E51A2403F8EC26FCEE0836E6
:0E328A00FEEC2AFAEE3BFB8A828B838FF01259
:0C3298005E53FAE51A2405F886820886C9
:0C32A400830886F0EA122FDFA81A080643
:0532B000B60002080653
:0732B500D007D006023234FD
:0732BC0090E24CE4F0A3F0E6
:0632C300851A81D01A22D9
:0A32C900C01A85811AC082C083C0BC
:0E32D300F00581058190E24EE0FCFA7B00746C
:0C32E10030C39AFAE49BFBE51A2404F8C1
:0E32ED00A60208A60390EB3CE0FFA3E0FEA3C0
:0C32FB00E0FDEC2FFCE43EFFA81A088662
:0C33070002088603088606E51A2404F874
:0E331300E6C0E008E6C0E0C004C007C0058ABE
:0E332100828B838EF0123E03E58124FBF58142
:0E332F0090E24EE0FE7D007430C39EFEE49DF1
:0A333D00FD8E828D83851A81D01A5F
:013347002263
:0A334800C01A85811AC082C083C03C
:0E335200F0E5812405F58190E24EE0FCFA7B67
:0D336000007430C39AFEE49BFF90E24AE542
:0C336D001A2404F8E0F6A3E008F68E0530
:0C337900E51A2404F8E62DFD08E63FFFED
:0E338500C374809DE49F5006900000023457F0
:0E3393007430C39AFAE49BFB90EB3CE0FDA380
:0E33A100E0FEA3E0FFEC2DFDE43EFEC002C006
:0C33AF0003C005C006C007A81A088682EB
:0E33BB000886830886F0123E03E58124FBF5A8
:0E33C9008190E24CE0FEA3E0FF90E301E0FB08
:0E33D700A3E0FCA3E0FDEE2BFEEF3CFF8D0219
:0C33E500A81A088603088604088605E57F
:0C33F1001A2406F874302BF6E43C08F6B1
:0C33FD0008A60590E24EE0FD7C00E51AF9
:0E3409002406F8E6C39DFD08E69CFC08860339
:0E34170090E24AE0C0E0A3E0C0E0C006C007BB
:0E342500C0028D828C838BF0123E03E5812461
:0E343300FBF58190E24EE0FF7E007430C39FF7
:0E344100FFE49EFE90E24AE0FCA3E0FDEC2FCB
:08344F00FCED3EFD8C828D8333
:06345700851A81D01A2243
:0E345D00AE82AF8390E24EE0FD7C00C3ED9E98
:0E346B00EC64808FF063F08095F0402FC00776
:0E347900C0061235E8AC82AD83D006D0078EB7
:0E348700028F03EA2CFCEB3DFDC374809CE435
:0E3495009D400E90E24EE0C39E90E24EF090FD
:0334A30000012203
:0434A6009000002270
:0C34AA00AE8290E24EE02E90E24EF02246
:0E34B600AE82AF8390E24AE0FCA3E0FDC3ECDF
:0934C4009EED9F500490000022CF
:0E34CD0090E24CE0FAA3E0FB90E24CEE2AF015
:0E34DB00EF3BA3F090E24AECC39EF0ED9FA3FE
:0534E900F0900001223B
:0C34EE00AF83E58290E24AF0A3EFF022E9
:0E34FA0090E24CE0FEA3E0FF74302EFEE43FB3
:0E350800FF90EB3CE0FBA3E0FCA3E0FDEE2B0C
:0E351600FEEF3CFF8D027D008E828F838DF0D4
:013524002284
:0E35250090EB3CE0FDA3E0FEA3E090E24EE060
:0E3533002DFDE43EFE7F008D828E838FF02200
:0A354100C01A85811AAD82AE83AF77
:0E354B00F0C007C006C005123104D005D0063E
:0E355900D00790E301EDF0A3EEF0A3EFF0E554
:0C3567001A24FCF890E24AE6F008A3E603
:04357300F0D01A2258
:0E35770090EB3CE0FDA3E0FEA3E0FF74302DDE
:0E358500FDE43EFE90E301E0FAA3E0FBA3E0CC
:0E359300FCC005C006C0078A828B838CF01234
:0E35A10000851581158115817004740180016B
:0135AF00E437
:0435B000FDB4010065
:0A35B400E433FD7F008D828F832237
:0E35BE0090E301E0FDA3E0FEA3E0FF8D828E0E
:0435CC00838FF022D7
:0C35D00090E24AE0FEA3E08E82F5832228
:0C35DC0090E24EE0FF7430C39FF58222A5
:0E35E8001235DCAF82C0071235D0AD82AE8343
:0E35F600D0077C00ED2FFDEE3C8D82F5832288
:043604007E007F00C5
:0E360800C3EE9418EF64809480501E8E04EF81
:0C361600CC25E0CC33FDEC2412F582ED55
:0C36220034E2F583E4F0A3F00EBE00DA01
:03362E000F80D733
:043631007E007F0098
:0E363500C3EE9404EF64809480503D8E04EF49
:0C364300CC25E0CC33FDEC2442FCED343F
:0A364F00E2FD7B00C007C006740016
:0C365900C0E074B3C0E07480C0E08C825C
:0E3665008D838BF0123B8E158115811581D05F
:0A36730006D0070EBE00BB0F80B8A2
:01367D00222A
:0A367E00C01A85811AAD82AE83AF39
:0C368800F07430C0E0E4C0E07412C0E058
:0C36940074E2C0E0E4C0E08D828E838F01
:0C36A000F0123E03E58124FBF581E51AE1
:0E36AC0024FBF886050886060886077408C009
:0A36BA00E0E4C0E07442C0E074E2F6
:0E36C400C0E0E4C0E08D828E838FF0123E03E2
:0936D200E58124FBF581D01A22E8
:0A36DB00C01A85811AAD82AE83AFDC
:0E36E500F07430C0E0E4C0E0C005C006C007CD
:0E36F30090E21275F000123E03E58124FBF513
:0C37010081E51A24FBF8860508860608FE
:0E370D0086077408C0E0E4C0E0C005C006C036
:0E371B000790E24275F000123E03E58124FBA8
:05372900F581D01A2219
:0A372E00C01A85811AE58225822465
:0937380012F582E434E2F583E5A8
:0B3741001A24FCF8E6F0A308E6F09064
:05374C000001D01A226B
:0A375100E58225822412F582E4349B
:0C375B00E2F583E0FEA3E08E82F58322FD
:0A376700C01A85811AE58224E825C6
:0A377100E02442FFE434E2FE7D0094
:0C377B00E51A24FBF8E6C0E008E6C0E018
:0E37870008E6C0E08F828E838DF0123B8E1517
:0B3795008115811581900001D01A22DF
:0B37A000E58224E825E02442FFE43429
:0B37AB00E2FE7D008F828E838DF022F5
:03B3B0004FE20069
:0A37B600C01A85811AC082C083C0CA
:0C37C000F0A81A0886820886830886F0AC
:0C37CC00E51A24FBF9E7122FDFA309E740
:0A37D800122FDFA309E7122FDFA86C
:0C37E2001A08740326FAE40836FB088677
:0C37EE0004E51A24FAF8E6148A828B83A2
:0C37FA008CF0122FDFA81A08740426FDC2
:0E380600E40836FE0886078D828E838FF0E47C
:0C381400122FDFA81A08740526FDE40836
:0D38200036FE0886078D828E838FF0E4123D
:06382D002FDF851A81D097
:023833001A2257
:0A383500C01A85811AC082C083C04A
:0C383F00F0E5812406F581A81A08740445
:0E384B0026FAE40836FB0886048A828B838CFA
:0B385900F0E51A2404F8125E53F6E5B7
:0A3864001A2404F8E51A2405F9E619
:0C386E00F7097700A81A08740526FDE48D
:0D387A000836FE0886078D828E838FF012BF
:0C3887005E53FD7F00E51A2405F8E6C33F
:0C3893009DF608E69FF6A81A08740326AC
:0E389F00FDE40836FE0886078D828E838FF0CA
:0A38AD00E51A2407F8125E53F6E551
:0A38B7001A2407F8E51A2408F9E6C0
:0A38C100F7097700E51A2405F8E581
:0C38CB001A2408F9E756FE09E70856FF2A
:0C38D700E51A2408F8E6B5060708E6B577
:0438E3000702800256
:0238E70080055A
:0538E900900000804E7C
:0C38EE00A81A0886820886830886F0125B
:0A38FA005E53FDA3125E53FEA312FD
:0C3904005E53FFE51A2404F8E62DFDE4F4
:0C3910003EFE8D828E838FF0E51A24FDB0
:0C391C00F8E6122FDFE51A2404F8E60498
:0C392800C8E51A2407C856FF8A828B836A
:083934008CF0122FDF9000015E
:06393C00851A81D01A2259
:0A394200C01A85811AC082C083C03C
:0C394C00F0058105810581A81A087404AB
:0E39580026FAE40836FB0886048A828B838CEC
:0B396600F0125E53FA7C00A81A08E57E
:0C3971001A2404F9740526F7E40836094E
:0C397D00F70809E6F7E51A2404F8868232
:0E3989000886830886F0125E53FBFE7F00EA7C
:0C399700C39EFAEC9FFCA81A08740326DB
:0E39A300FDE40836FE0886078D828E838FF0C5
:0E39B100125E53FFFD7E00ED5202EE5204C383
:0E39BF00E49AE464808CF063F08095F050464A
:0C39CD00A81A0886820886830886F0127B
:0A39D9005E53FCA3125E53FDA3121F
:0E39E3005E53FEEB2CFCE43DFD8C828D838E4A
:0C39F100F0125E53FCEB045207E51A24B0
:0E39FD0004F886820886830886F0EF122FDF1A
:083A0B007F008C828F83800391
:033A130090FFFF22
:063A1600851A81D01A227E
:0E3A1C00AD82AE83AFF074032DFDE43EFE8D4F
:0E3A2A00828E838FF0125E53FD7F000DBD0073
:023A3800010F7C
:053A3A008D828F832244
:0E3A3F00AD82AE83AFF074042DFAE43EFB8F2F
:0E3A4D00048A828B838CF0125E53FA7C007424
:0E3A5B00052DF8E43EF98F03888289838BF0F5
:0E3A6900125E53F87B00EAC398FAEC9BFC74E3
:0D3A7700032DFDE43EFE8D828E838FF01244
:0E3A84005E537F005202EF52048A828C83222E
:0800E8007800E84400600A7989
:0300F00000759305
:0600F300E0E4F309D8FC73
:0800F9007804E8440B600C7967
:0B0101000C90E000E4F0A3D8FCD9FA59
:0E3A920043F10243F4C0AF905307DF8F90431F
:0E3AA000FE60AFFE53076F8FFE75FAD875FCFF
:0E3AAE000B75FB0275F8C043B90843A9082246
:063ABC00AF82C2EA8FF99F
:053AC20010EA0280FB88
:013AC70022DC
:0A3AC800C01A85811A0581058105E9
:0C3AD20081AD82AE83AFF0E51A24F9F854
:0B3ADE00E608467006900000023B88DE
:0C3AE900E51A24FBF88602088603088614
:0A3AF50004E51A24F9F8A91A09E6FD
:053AFF00F70809E6F7DD
:093B0400A81A0816B6FF02081603
:0C3B0D00A81A08E60846604C8D828E83E2
:0C3B19008FF0E51A2403F8125E53F6E565
:0C3B25001A2403F8E66035C005C006C095
:0C3B3100078A828B838CF0125E53FFE544
:0A3B3D001A2403F8E6B50702800819
:083B4700D007D006D005801262
:0B3B4F00D007D006D0050DBD00010E10
:073B5A000ABA00A60B80A3CC
:0E3B61008D828E838FF0125E53FD3395E0FF50
:0E3B6F008A828B838CF0125E53FA3395E0FE4F
:0B3B7D00EDC39AFDEF9EFF8D828F8349
:063B8800851A81D01A220B
:0A3B8E00C01A85811AC082C083C0EE
:0A3B9800F00581E51A2404F8760018
:083BA200E51A2404F8B6020044
:0A3BAA005045A81A08E51A2404F992
:0C3BB400E726FAE40836FB088607E51A4D
:0C3BC00024FBF88604088605088606E54C
:0C3BCC001A2404F8E62CFCE43DFD8C8279
:0E3BD8008D838EF0125E53FC8A828B838FF0F9
:0B3BE600122FDFE51A2404F80680B15E
:063BF100851A81D01A22A2
:0A3BF700C01A85811AC082C083C085
:0A3C0100F00581E51A2404F87600AE
:083C0B00E51A2404F8B60200DA
:0A3C13005051A81A08E51A2404F91C
:0C3C1D00E726FAE40836FB088607E51AE3
:0C3C290024FBF88604088605088606E5E2
:0C3C35001A2404F8E62CFCE43DFD8A8211
:0E3C41008B838FF0125E53FA8C828D838EF08F
:0A3C4F00125E53FCEAB50402800582
:053C5900900000800B4B
:083C5E00E51A2404F80680A514
:033C6600900001CA
:063C6900851A81D01A2229
:0D3C6F00AD82AE83AFF0C005C006C0079067
:0E3C7C00E30475F000123B8E15811581158151
:013C8A002217
:02B3000000004B
:07011100E4F516F517E4F513
:0301180018F519BE
:063C8B00AE82AF83C2AF60
:093C91008E048F051EBEFF011F09
:073C9A00EC4D7003023CA891
:073CA10000000000023C914D
:033CA800D2AF2276
:0E3CAB00AE82AF83C007C006123CE4AC82AD0F
:053CB90083D006D007D6
:0E3CBE00C007C006C005C004123CE4AA82ABD9
:0E3CCC0083D004D005D006D007EAC39CFAEBE3
:0A3CDA009DFBC3EA9EEB9F40DB2236
:073CE400851682851783227B
:0A3CEB00AC18AD197E007F008C823A
:063CF5008D838EF0EF222A
:0E3CFB0075C6B0AC957D007E007F00A896795E
:0E3D0900007A008A0389028801E42CFCE93D5F
:0E3D1700FDEA3EFEEB3FFFA897790089038886
:0E3D250002E4F92CFCE93DFDEA3EFEEB3FFF17
:0E3D330074012DFDE43EFEE43FFF90E306EC3C
:0E3D4100F0A3EDF0A3EEF0A3EFF08E978D96B9
:053D4F008C95D2AD22AD
:0E3D5400C0E0C082C083C007C006C005C00426
:0E3D6200C003C002C001C000C0D075D000C2B6
:0E3D7000AF53BEFCAC957D007E007F00A89690
:0E3D7E0079007A008A0389028801E42CFCE9AE
:0E3D8C003DFDEA3EFEEB3FFFA897790089035C
:0E3D9A008802E4F9F82CFCE93DFDEA3EFEEB60
:0D3DA8003FFF74012DFDE43EFEE43FFF905F
:0E3DB500E306ECF0A3EDF0A3EEF0A3EFF08E2A
:0A3DC300978D968C9574012516F576
:053DCD0016E43517F5B6
:0A3DD20017E516547F700B740125ED
:053DDC0018F518E435A4
:033DE10019F519B8
:0C3DE400D200C2C7D2AFD0D0D000D001B6
:0E3DF000D002D003D004D005D006D007D08377
:053DFE00D082D0E0328C
:0A3E0300C01AE581F51A2408F581C4
:0C3E0D00AD82AE83AFF0A81A08A605082D
:0B3E1900A60608A607E51A24FBF8E542
:0C3E24001A2404F9E6F70809E6F708097B
:0A3E3000E6F7E51A24F9F8E51A2474
:083E3A0007F9E6F70809E6F7B5
:0B3E4200E51A2407F88603088604E553
:0A3E4D001A2407F816B6FF02081643
:0C3E5700EB4C602AE51A2404F88682086F
:0E3E630086830886F0125E53FCA31818A68210
:0E3E710008A6838D828E838FF0EC122FDFA3C4
:063E7F00AD82AE8380BDA0
:0C3E8500A81A0886820886830886F0854B
:053E91001A81D01A2285
:0A3E9600C01A85811AC082C083C0E3
:0E3EA000F090EB60E0FAA3E0FBA3E0FC8A8266
:0D3EAE008B838CF0125815AA82AB83ACF008
:0E3EBB00EA4B605F74032AFDE43BFE8C07C0F7
:0C3EC90004C003C002A81A08E6C0E0080C
:0E3ED500E6C0E008E6C0E08D828E838FF0121A
:0E3EE3003BF7AE82AF83158115811581D002A9
:0E3EF100D003D004EE4F60088A828B838CF0E1
:023EFF0080231E
:0D3F01008A058B068C078D828E838FF0124F
:0E3F0E005E20AD82AE83AFF08D028E038F0475
:023F1C00809D86
:063F1E0090000075F000A8
:063F2400851A81D01A226B
:0E3F2A0090B331E493FEA3E493FF8E828F8365
:0E3F3800120083AE82AF83EE4F70037E10FF47
:053F46008E828F832232
:0A3F4B00C01A85811A058105810561
:0E3F550081AD82AE83AFF0ED4E7003023FEA05
:0E3F630074202DFAE43EFB8F048A828B838C3F
:0C3F7100F0125E53FAA3125E53FBA31281
:0E3F7D005E53FC8A828B838CF0C007C006C0A6
:0E3F8B0005125815AA82AB83ACF0D005D00603
:0C3F9900D007A81A08A60208A60308A674
:0C3FA50004A81A08E60846603C90B32906
:0C3FB100E493FBA3E493FCC004C003A84D
:0C3FBD001A08E6C0E008E6C0E008E6C014
:0C3FC900E0C005C006C00774E0C0E07452
:0B3FD5003FC0E0C003C00490424D223A
:0A3FE000E58124FAF581D003D00436
:063FEA00851A81D01A22A5
:0A3FF000C01A85811AC082C083C088
:0C3FFA00F0E5812405F581A81A08742068
:0E40060026FAE40836FB0886048A828B838C37
:0C401400F0125E53FDA3125E53FEA312D7
:0E4020005E53FF8D828E838FF0C004C003C0FC
:0E402E0002125815AD82AE83AFF0D002D0035F
:0C403C00D004E51A2404F8A60508A60626
:0C40480008A607E51A2404F8E6084670F4
:0440540003024247DA
:0C405800E51A2404F8740326FDE4083681
:0E406400FE0886078D828E838FF0125E53FD5C
:0E407200A3125E53FEA3125E53FF8D828E8357
:0E4080008FF0C004C003C00212767ED002D0C2
:0E408E0003D0048A828B838CF0125E53FDA354
:0E409C00125E53FEA3125E53FF8D828E838F41
:0C40AA00F0C004C003C002125B57E51A0E
:0E40B6002404F8740626FDE40836FE0886078A
:0E40C4008D828E838FF0125E53FDA3125E5329
:0D40D200FEA3125E53FFC005C006C007909C
:0E40DF00EB5375F0001271D615811581158115
:0C40ED00E51A2404F886050886060886FB
:0E40F90007C005C006C00790EB4975F0001225
:0E41070071D6158115811581D002D003D00428
:0E4115008A828B838CF0125E53FAA3125E53E3
:0D412300FBA3125E53FC8A828B838CF0128A
:0D4130005815AD82AE83AFF0ED4E70030266
:02413D0041E55A
:0C413F00A81A08741A26FDE40836FE08D1
:0D414B0086078D828E838FF0E4122FDFA88F
:0C4158001A08741B26FDE40836FE0886D9
:0C416400078D828E838FF0E4122FDFA8FD
:0C4170001A08741C26FDE40836FE0886C0
:0C417C00078D828E838FF0E4122FDFA8E5
:0C4188001A088605088606088607C0078E
:0C419400C006C005123F2AC8E51A240727
:0D41A000C8A68208A683D005D006D007A8C7
:0C41AD001A08740526FAE40836FB0886A0
:0C41B90004C005C006C007744BC0E074D1
:0A41C5003FC0E0E51A2407F8E6C049
:0E41CF00E008E6C0E08A828B838CF012509EDE
:0841DD00E58124F9F5818062FF
:0C41E500A81A08740526FDE40836FE0840
:0C41F10086078D828E838FF012537CA80D
:0B41FD001A0886050886060886079051
:0E420800EB60E0FAA3E0FBA3E0FCC005C006FB
:0E421600C0078A828B838CF0125BC415811561
:0C422400811581A81A0886050886060886
:0E4230008607C005C006C00790EB3F75F00082
:09423E001271D61581158115815C
:06424700851A81D01A2245
:0A424D00C01AE581F51A2414F5816A
:0C425700AD82AE83AFF0A81A08A60508DF
:0C426300A60608A607A81A08742026FA70
:0E426F00E40836FB0886048A828B838CF012EA
:0A427D005E53FAA3125E53FBA31276
:0E4287005E53FC8A828B838CF0125815AA823B
:0C429500AB83ACF0E51A2404F8A6020884
:0C42A100A60308A604E51A2404F874061D
:0E42AD0026FAE40836FB0886048A828B838C8E
:0C42BB00F0125E53FAA3125E53FBA31234
:0C42C7005E53FCE51A2407F8A60208A6C6
:0C42D3000308A604E51A24FCF8B6000657
:0642DF0008B60002802A6F
:0C42E500E51A24FCF8B6010608B6000239
:0242F10080410A
:0C42F300E51A24FCF8B6020608B600022A
:0242FF00800E2F
:0C430100E51A24FCF8B6037308B6006F40
:02430D00804AE4
:0C430F00A81A08741A26FAE40836FB0805
:0E431B0086048A828B838CF0125E53FF0F8A19
:0B432900828B838CF0EF122FDF8048A6
:0C433400A81A08741B26FDE40836FE08D9
:0E43400086078D828E838FF0125E53FC0C8DEB
:0B434E00828E838FF0EC122FDF8023A3
:0C435900A81A08741C26FDE40836FE08B3
:0E43650086078D828E838FF0125E53FC0C8DC6
:09437300828E838FF0EC122FDF23
:0C437C00E51A2407F8868208868308866C
:0B438800F0125E53FEA3125E53FFE52F
:0A4393001A240CF8A60608A607E598
:0C439D001A2407F8740226FDE40836FE1E
:0E43A9000886078D828E838FF0125E53FDA36F
:0A43B700125E53FEA3125E53FFE5F1
:0C43C1001A240EF8A60508A60608A60798
:0C43CD00A81A08741A26FDE40836FE0841
:0D43D90086078D828E838FF0125E53FCE507
:0A43E6001A2411F8A604087600E579
:0C43F0001A24FCF8B6010608B600028092
:0143FC0011AF
:0C43FD00E51A24FCF8B6020608B600021F
:0244090080032E
:03440B000245A6C1
:0E440E00C007C006C005123F2AAC82AB83D0A7
:0C441C0005D006D007E51A240AF8A60413
:0E44280008A6038D828E838FF0125E53FAC0B9
:0E44360005C006C0077F0074012AFBE43FFCAE
:0E444400C374039BE464808CF063F08095F0F9
:0C445200D007D006D00550047B037C008E
:0E445E00C007C006C005C004C003124D06C84A
:0C446C00E51A2413C8A68208A683D0031A
:0C447800D004E51A240AF8E6C0E008E6CB
:0E448400C0E08B828C83122FFBAB82AC8315C1
:0C449200811581C003C004E51A2413F852
:0E449E008682088683126714AB82AC83158178
:0C44AC001581D005D006D007E51A240ABF
:0E44B800F8EB26F6EC0836F68D828E838FF038
:0C44C600125E53FDE51A2407F874052669
:0E44D200FCE40836FE0886078C828E838FF08D
:0C44E000125E53FCC3ED9C5072A81A0839
:0C44EC008605088606088607A81A0874D2
:0E44F8000526FAE40836FB088604C005C00657
:0A450600C007744BC0E0743FC0E032
:0C451000E51A240AF8E6C0E008E6C0E066
:0E451C008A828B838CF012509EE58124F9F583
:0C452A0081E51A2404F8740326FDE4085F
:0E45360036FE0886078D828E838FF0125E534C
:0E454400FDA3125E53FEA3125E53FF8D828E06
:09455200838FF012764F0245EF51
:0C455B00A81A0886820886830886F012E1
:0C4567003FF0E51A2411F8E6C0E008E679
:0C457300C0E0E51A24FCF8E6C0E008E611
:0C457F00C0E0E51A240EF8E6C0E008E6F3
:0C458B00C0E008E6C0E0E51A240CF88649
:0E45970082088683124C3AE58124F9F5818072
:0145A50049CC
:0C45A600A81A0886820886830886F01296
:0C45B2003FF0E51A2411F8E6C0E008E62E
:0C45BE00C0E0E51A24FCF8E6C0E008E6C6
:0C45CA00C0E0E51A240EF8E6C0E008E6A8
:0C45D600C0E008E6C0E0E51A240CF886FE
:0D45E20082088683124C3AE58124F9F581A8
:0645EF00851A81D01A229A
:0A45F500C01A85811AC082C083E558
:0E45FF00812409F58190E3DAE0FCA3E0FD9051
:0E460D00E3DA74012CF0E43DA3F0C004C00514
:0E461B0075820A12372E1581158175821912CB
:0C46290037A0AB82AC83ADF07400C0E0A1
:0C46350074B3C0E07480C0E08B828C8302
:0E4641008DF0123BF7AC82AD8315811581150B
:08464F0081EC4D6003024B7980
:0E4657007582191237A0AB82AC83ADF08B02D6
:0E4665008A82C005C004C002123E96AF82AE2B
:0C46730083ABF0D002D004D005E51A247F
:0C467F0006F8A60708A60608A603E51A20
:0B468B002406F8E6084660030247BC66
:0D46960090EB3F75F000C005C004C002129B
:0E46A3007086AB82AE83AFF0D002D004D0059B
:0C46B100E51A2406F8A60308A60608A6D1
:0C46BD0007E51A2406F8E6084670030220
:0246C90047BCEC
:0C46CB00E51A2406F8740326FBE4083608
:0E46D700FE088607C002C004C0058B828E83D9
:0C46E5008FF0123B8E158115811581E5C8
:0C46F1001A2406F8741A26FBE40836FEB2
:0E46FD000886078B828E838FF0E4122FDFE594
:0C470B001A2406F8741B26FBE40836FE96
:0E4717000886078B828E838FF0E4122FDFE579
:0C4725001A2406F8741C26FBE40836FE7B
:0E4731000886078B828E838FF0E4122FDFE55F
:0C473F001A2406F8742026FBE40836FE5D
:0C474B00088607E51A2406F8741D26FAFB
:0E475700E40836FC0886058B828E838FF0EA1C
:0B476500122FDFA3EC122FDFA3ED12D8
:0E4770002FDF8A828C838DF0E4122FDFA3E40A
:0E477E00122FDFA3E4122FDF8A828C838DF0CE
:0C478C00125807E51A2406F88602088679
:0E4798000408860590EB60E0FBA3E0FEA3E0C2
:0E47A600FFC002C004C0058B828E838FF0120C
:0847B40058C215811581158121
:0B47BC00E51A2406F8E6084670030228
:0247C7004B485D
:0E47C90090EB4975F000127086AB82AC83ADA8
:0C47D700F0E51A2403F8A60308A6040865
:0C47E300A605E51A2403F8E6084670035A
:0347EF00024AC3B8
:0C47F200E51A2403F8740626FAE40836E1
:0E47FE00FE08860790EB5375F000C007C0065A
:0E480C00C002127086AB82AC83ADF0D002D039
:0E481A0006D0078A828E838FF0EB122FDFA369
:0E482800EC122FDFA3ED122FDFEB4C7003021A
:024836004AA195
:0A483800E51A2403F8E51A2409F933
:0E484200740326F7E4083609F70809E6F7C004
:0E48500007C006C002127475AB82AC83ADF0D7
:0C485E00D002D006D007E51A2409F88625
:0E486A00820886830886F0EB122FDFA3EC1283
:0C4878002FDFA3ED122FDFEB4C700302CA
:024884004A7870
:0E4886008A828E838FF0125E53FBA3125E5364
:0E489400FCA3125E53FD8B078C068D0275820D
:0E48A20009C007C006C002123751E5828583A7
:0E48B000F0D002D006D00745F0701674052F28
:0E48BE00FBE43EFC8A058B828C838DF0740334
:0548CC00122FDF803710
:0C48D100E51A2409F874052FF6E43E08EF
:0E48DD00F608A602758209C007C006C00212C6
:0D48EB003751AC82AD83D002D006D007E576
:0C48F8001A2409F886820886830886F0DE
:04490400EC122FDFA3
:0B4908008F828E838AF0A81A08E61246
:0E4913002FDFA308E6122FDF74022FFBE43E15
:0C492100FC8A058B828C838DF0E51A2443
:0E492D00FBF8E6122FDFA308E6122FDFA30827
:0E493B00E6122FDF75820E123751AC82AD836B
:0C494900BC014BBD0048E51A2403F886B1
:0C49550007088606088602E51A2406F80A
:0E496100742026FBE40836FC0886058B828C49
:0E496F00838DF0125E53FBA3125E53FCA31265
:0E497D005E53FDC007C006C0028B828C838D86
:0C498B00F01259791581158115818046C4
:0C499700E51A2403F88607088606088647
:0C49A30002E51A2406F8742026FBE40844
:0E49AF0036FC0886058B828C838DF0125E53D9
:0E49BD00FBA3125E53FCA3125E53FDC007C0A5
:0E49CB0006C0028B828C838DF01258C21581BB
:0449D90015811581AE
:0C49DD00E51A2406F8742026FBE40836D6
:0E49E900FC0886058B828C838DF0125E53FBDA
:0E49F700A3125E53FCA3125E53FD8B828C83D1
:0C4A05008DF0125815AF82AE83AAF0E5C8
:0C4A11001A2403F88603088604088605B2
:0D4A1D00C003C004C0058F828E838AF01292
:0C4A2A0000851581158115816002803F18
:0C4A3600E51A2406F886020886070886A8
:0C4A420006E51A2406F8740526FBE408BB
:0C4A4E0036FC088605C002C007C00674D4
:0A4A5A004BC0E0743FC0E0E4C0E090
:0E4A6400C0E08B828C838DF012509EE5812481
:034A7200F9F581D2
:034A7500024BB63B
:0E4A78008A828E838FF0125E53FAA3125E5371
:0D4A8600FEA3125E53FFC002C006C00790E1
:0E4A9300EB5375F0001271D615811581158157
:0C4AA100E51A2403F88603088604088642
:0E4AAD0005C003C004C00590EB4975F000126F
:084ABB0071D6158115811581EA
:0C4AC300E51A2406F8742026FDE40836ED
:0E4ACF00FE0886078D828E838FF0125E53FDE7
:0E4ADD00A3125E53FEA3125E53FF8D828E83E2
:0E4AEB008FF0125D25E5828583F045F0704F57
:0C4AF900E51A2406F886020886040886E8
:0E4B05000590EB60E0FBA3E0FEA3E0FFC00222
:0E4B1300C004C0058B828E838FF0125BC41528
:0C4B21008115811581E51A2406F8860232
:0D4B2D00088604088605C002C004C005907B
:0E4B3A00EB3F75F0001271D6158115811581C3
:0E4B48007401C0E0E4C0E07404C0E0E4C0E02A
:0C4B5600E51A24FBF8E6C0E008E6C0E029
:0C4B620008E6C0E0A81A088682088683D6
:0B4B6E00124C3AE58124F9F581803DEE
:0E4B790090B327E493FEA3E493FFC007C006A9
:0C4B8700E51A24FBF8E6C0E008E6C0E0F8
:0A4B930008E6C0E074ACC0E0744B0B
:0C4B9D00C0E0C006C007A81A0886820805
:034BA900868322DE
:0A4BAC00158115811581D006D00790
:064BB600851A81D01A22CD
:0E4BBC0090B31BE493FEA3E493FFC007C00672
:0C4BCA008E828F83120083D006D0072259
:0E4BD60090B32DE493FEA3E493FF8E828F83B1
:034BE40002008349
:0E4BE700AE82AF8390B32FE493FCA3E493FD62
:0A4BF5007406C0E0744CC0E0C00478
:074BFF00C0058E828F8322A6
:014C0600228B
:0E4C070090B331E493FEA3E493FF4E60078E5A
:064C1500828F8302008380
:044C1B0090000022E3
:0A4C1F0090EB4975F000126F9490BD
:094C2900EB5375F000126F94903A
:084C3200EB3F75F000026F94E6
:03B3020011B38004
:02B305001F4CDB
:02B30700F5450A
:02B30900BC4B3B
:02B30B00D64B1F
:02B30D00E74B0C
:02B30F00074CE9
:05B3110043534D410013
:07B3B300230002000AE30081
:03B3BA000CE300A1
:07B3BD000900080052E30043
:03B3C4005AE30049
:07B3C70006000800A2E300EC
:03B3CE00AAE300EF
:03B3D10000000079
:03B3D4005DEB002E
:02008300E47324
:0A4C3A00C01A85811AAE82AF83EE26
:0C4C44004F6040C007C006E51A24F7F8D6
:0C4C5000E6C0E008E6C0E0E51A24F9F830
:0C4C5C00E6C0E008E6C0E0747DC0E07433
:0A4C68004CC0E0C006C007E51A24A6
:0B4C7200FBF886820886830886F0228B
:0A4C7D00E58124FCF581D006D00784
:034C8700D01A221E
:064C8A00C01A85811A1218
:054C90002FF8D01A22EC
:0A4C9500C01A85811AAD82AE83AF0C
:0C4C9F00F0E51A24FDF8E6C0E0C005C0F6
:0E4CAB0006C007E4C0E0C0E0C0E0904C8A12F2
:0E4CB90082E8AE82AF83E58124F9F5818E8218
:054CC7008F83D01A22CA
:064CCC00C01A85811AE503
:0A4CD2001A24FBFFC007E51A24FBBB
:0E4CDC00F8E6C0E008E6C0E008E6C0E0E4C08C
:0E4CEA00E0C0E0C0E0904C8A1282E8AE82AFDB
:0C4CF80083E58124F9F5818E828F83D042
:024D04001A2271
:0E4D060043B404AFBD7E00ACBC7D00EC4206A1
:084D1400ED42078E828F83221D
:0D4D1C00AE82AF83EE4F60058FBC8EBC22CF
:084D290090DF17E054F7FFF0E2
:0D4D3100E5E930E7FBAFE953077F8FE9901C
:0E4D3E00DF057402F07582E2122581AFB453D6
:044D4C0007F38FB426
:0E4D500090DF3AE0FF90DF3BE0FE5F60F37E15
:034D5E00007F00D3
:0E4D6100C3EE9420EF64809480501690DF3AE9
:0E4D6F00E0F5BC90DF3BE0F5BC43B4040EBEA3
:054D7D0000E20F80DFE1
:084D820090DF17E04408F02265
:0A4D8A00C01AE581F51A2408F5812E
:0E4D9400AD82AE83AFF07C01125E53FAA31223
:0B4DA2005E53FBBA0005BB0002800C52
:094DAD00BA4B06BB0003024E9C48
:034DB60002505652
:0E4DB900C005C006C00790EB66E0FAA3E0FB61
:0E4DC700A3E0FF8A828B838FF0125815AD8215
:0C4DD500AE83AFF0A81A08A60508A606D9
:094DE10008A607D007D006D00592
:0C4DEA00A81A08E4C0E0E4C0E0E4C0E067
:0E4DF60086820886830886F0120085158115D6
:0C4E0400811581607BC005C006C007A8B6
:0C4E10001A08740326FAE40836FB088632
:0E4E1C000774022AFAE43BFB8A828B838FF034
:0A4E2A00125E53FAA3125E53FBA8B8
:0C4E34001A08740326FDE40836FE088608
:0E4E400007C007C006C005C002C0038D828EE9
:0E4E4E00838FF012105D15811581D005D006FE
:0C4E5C00D007A81A088682088683088602
:0E4E6800F0125E531818F6A3125E5308F6A35C
:0E4E7600125E5308F6D007D006D005024DEAB2
:064E840090E3DC7401F074
:0E4E8A007C008D828E838FF0744B122FDFA37D
:044E9800E4122FDF12
:0C4E9C00EC600AE51A24FDF8B6880280DC
:014EA8000603
:064EA90075820102506851
:0E4EAF0090EB66E0FAA3E0FBA3E0FC8A828BA6
:0E4EBD00838CF0C007C006C005125815AA82EB
